{
    "contractName": "Crowdfunding",
    "abi": [
        {
            "inputs": [
                {
                    "internalType": "address",
                    "name": "_owner",
                    "type": "address"
                },
                {
                    "internalType": "string",
                    "name": "_name",
                    "type": "string"
                },
                {
                    "internalType": "string",
                    "name": "_description",
                    "type": "string"
                },
                {
                    "internalType": "uint256",
                    "name": "_goal",
                    "type": "uint256"
                },
                {
                    "internalType": "uint256",
                    "name": "_duratyionInDays",
                    "type": "uint256"
                }
            ],
            "stateMutability": "nonpayable",
            "type": "constructor"
        },
        {
            "inputs": [
                {
                    "internalType": "string",
                    "name": "_name",
                    "type": "string"
                },
                {
                    "internalType": "uint256",
                    "name": "_amount",
                    "type": "uint256"
                }
            ],
            "name": "addTier",
            "outputs": [],
            "stateMutability": "nonpayable",
            "type": "function"
        },
        {
            "inputs": [
                {
                    "internalType": "address",
                    "name": "",
                    "type": "address"
                }
            ],
            "name": "backers",
            "outputs": [
                {
                    "internalType": "uint256",
                    "name": "totalContribution",
                    "type": "uint256"
                }
            ],
            "stateMutability": "view",
            "type": "function"
        },
        {
            "inputs": [],
            "name": "deadline",
            "outputs": [
                {
                    "internalType": "uint256",
                    "name": "",
                    "type": "uint256"
                }
            ],
            "stateMutability": "view",
            "type": "function"
        },
        {
            "inputs": [],
            "name": "description",
            "outputs": [
                {
                    "internalType": "string",
                    "name": "",
                    "type": "string"
                }
            ],
            "stateMutability": "view",
            "type": "function"
        },
        {
            "inputs": [
                {
                    "internalType": "uint256",
                    "name": "_daysToAdd",
                    "type": "uint256"
                }
            ],
            "name": "extendDeadline",
            "outputs": [],
            "stateMutability": "nonpayable",
            "type": "function"
        },
        {
            "inputs": [
                {
                    "internalType": "uint256",
                    "name": "_tierIndex",
                    "type": "uint256"
                }
            ],
            "name": "fund",
            "outputs": [],
            "stateMutability": "payable",
            "type": "function"
        },
        {
            "inputs": [],
            "name": "getCampaignStatus",
            "outputs": [
                {
                    "internalType": "enum Crowdfunding.CampaignState",
                    "name": "",
                    "type": "uint8"
                }
            ],
            "stateMutability": "view",
            "type": "function"
        },
        {
            "inputs": [],
            "name": "getContractBalance",
            "outputs": [
                {
                    "internalType": "uint256",
                    "name": "",
                    "type": "uint256"
                }
            ],
            "stateMutability": "view",
            "type": "function"
        },
        {
            "inputs": [],
            "name": "getTiers",
            "outputs": [
                {
                    "components": [
                        {
                            "internalType": "string",
                            "name": "name",
                            "type": "string"
                        },
                        {
                            "internalType": "uint256",
                            "name": "amount",
                            "type": "uint256"
                        },
                        {
                            "internalType": "uint256",
                            "name": "backers",
                            "type": "uint256"
                        }
                    ],
                    "internalType": "struct Crowdfunding.Tier[]",
                    "name": "",
                    "type": "tuple[]"
                }
            ],
            "stateMutability": "view",
            "type": "function"
        },
        {
            "inputs": [],
            "name": "goal",
            "outputs": [
                {
                    "internalType": "uint256",
                    "name": "",
                    "type": "uint256"
                }
            ],
            "stateMutability": "view",
            "type": "function"
        },
        {
            "inputs": [
                {
                    "internalType": "address",
                    "name": "_backer",
                    "type": "address"
                },
                {
                    "internalType": "uint256",
                    "name": "_tierIndex",
                    "type": "uint256"
                }
            ],
            "name": "hasFundedTier",
            "outputs": [
                {
                    "internalType": "bool",
                    "name": "",
                    "type": "bool"
                }
            ],
            "stateMutability": "view",
            "type": "function"
        },
        {
            "inputs": [],
            "name": "name",
            "outputs": [
                {
                    "internalType": "string",
                    "name": "",
                    "type": "string"
                }
            ],
            "stateMutability": "view",
            "type": "function"
        },
        {
            "inputs": [],
            "name": "owner",
            "outputs": [
                {
                    "internalType": "address",
                    "name": "",
                    "type": "address"
                }
            ],
            "stateMutability": "view",
            "type": "function"
        },
        {
            "inputs": [],
            "name": "paused",
            "outputs": [
                {
                    "internalType": "bool",
                    "name": "",
                    "type": "bool"
                }
            ],
            "stateMutability": "view",
            "type": "function"
        },
        {
            "inputs": [],
            "name": "refund",
            "outputs": [],
            "stateMutability": "nonpayable",
            "type": "function"
        },
        {
            "inputs": [
                {
                    "internalType": "uint256",
                    "name": "_index",
                    "type": "uint256"
                }
            ],
            "name": "removeTier",
            "outputs": [],
            "stateMutability": "nonpayable",
            "type": "function"
        },
        {
            "inputs": [],
            "name": "state",
            "outputs": [
                {
                    "internalType": "enum Crowdfunding.CampaignState",
                    "name": "",
                    "type": "uint8"
                }
            ],
            "stateMutability": "view",
            "type": "function"
        },
        {
            "inputs": [
                {
                    "internalType": "uint256",
                    "name": "",
                    "type": "uint256"
                }
            ],
            "name": "tiers",
            "outputs": [
                {
                    "internalType": "string",
                    "name": "name",
                    "type": "string"
                },
                {
                    "internalType": "uint256",
                    "name": "amount",
                    "type": "uint256"
                },
                {
                    "internalType": "uint256",
                    "name": "backers",
                    "type": "uint256"
                }
            ],
            "stateMutability": "view",
            "type": "function"
        },
        {
            "inputs": [],
            "name": "togglePause",
            "outputs": [],
            "stateMutability": "nonpayable",
            "type": "function"
        },
        {
            "inputs": [],
            "name": "withdraw",
            "outputs": [],
            "stateMutability": "nonpayable",
            "type": "function"
        }
    ],
    "bytecode": "608060405234610391576114f78038038061001981610395565b928339810160a0828203126103915781516001600160a01b03811691908290036103915760208301516001600160401b038111610391578161005c9185016103ba565b604084015190916001600160401b0382116103915761007c9185016103ba565b92608060608201519101519180519060018060401b038211610298575f5490600182811c92168015610387575b602083101461027a5781601f84931161031a575b50602090601f83116001146102b7575f926102ac575b50508160011b915f199060031b1c1916175f555b83516001600160401b03811161029857600154600181811c9116801561028e575b602082101461027a57601f8111610217575b50602094601f82116001146101b4579481929394955f926101a9575b50508160011b915f199060031b1c1916176001555b600255620151808102908082046201518014901517156101955742018042116101955760035560048054600161ff0160a01b0319169190911790556040516110eb908161040c8239f35b634e487b7160e01b5f52601160045260245ffd5b015190505f80610136565b601f1982169560015f52805f20915f5b8881106101ff575083600195969798106101e7575b505050811b0160015561014b565b01515f1960f88460031b161c191690555f80806101d9565b919260206001819286850151815501940192016101c4565b60015f527fb10e2d527612073b26eecdfd717e6a320cf44b4afac2b0732d9fcbe2b7fa0cf6601f830160051c81019160208410610270575b601f0160051c01905b818110610265575061011a565b5f8155600101610258565b909150819061024f565b634e487b7160e01b5f52602260045260245ffd5b90607f1690610108565b634e487b7160e01b5f52604160045260245ffd5b015190505f806100d3565b5f8080528281209350601f198516905b81811061030257509084600195949392106102ea575b505050811b015f556100e7565b01515f1960f88460031b161c191690555f80806102dd565b929360206001819287860151815501950193016102c7565b5f80529091507f290decd9548b62a8d60345a988386fc84ba6bc95484008f6362f93160ef3e563601f840160051c8101916020851061037d575b90601f859493920160051c01905b81811061036f57506100bd565b5f8155849350600101610362565b9091508190610354565b91607f16916100a9565b5f80fd5b6040519190601f01601f191682016001600160401b0381118382101761029857604052565b81601f82011215610391578051906001600160401b038211610298576103e9601f8301601f1916602001610395565b928284526020838301011161039157815f9260208093018386015e830101529056fe60806040526004361015610011575f80fd5b5f3560e01c8063039af9eb14610c2f57806306fdde0314610c135780631055051514610bec57806329dcb0cf14610bcf578063389b753314610b615780633ccfd60b14610a755780634019388314610a58578063590e1ae3146109695780635c975abb146109445780636f9fb98a146109295780637284e4161461084b5780637497211b146106f55780637adba527146106a95780638da5cb5b146106815780638ece7b9114610470578063b85dfb8014610438578063c19d93fb1461040c578063c4ae3168146103c5578063ca1d209d1461023c5763de170570146100f5575f80fd5b34610238575f3660031901126102385760055467ffffffffffffffff8111610224576040519061012b60208260051b0183610d15565b80825260208201908160055f527f036b6384b5eca791c62761152d0c79bb0604c104a5fb6f4eb0703f3154bb3db05f915b8383106101e657848660405191829160208301906020845251809152604083019060408160051b85010192915f905b82821061019a57505050500390f35b919360019193955060208091603f198982030185528751906040806101c88451606085526060850190610dd7565b9385810151868501520151910152960192019201859493919261018b565b600360206001926040516101f981610cf9565b61020286610d37565b815284860154838201526002860154604082015281520192019201919061015c565b634e487b7160e01b5f52604160045260245ffd5b5f80fd5b60203660031901126102385760043560045460ff8160a81c169060038210156103b15761026b60ff9215610ea0565b60a01c166103765760055481101561034157600161028882610c91565b500154340361030857600261029c82610c91565b500180545f1981146102f4576001019055335f52600660205260405f206102c4348254610eec565b9055335f526006602052600160405f2001905f5260205260405f20600160ff198254161790556102f261105a565b005b634e487b7160e01b5f52601160045260245ffd5b60405162461bcd60e51b815260206004820152601160248201527024b731b7b93932b1ba1030b6b7bab73a1760791b6044820152606490fd5b60405162461bcd60e51b815260206004820152600d60248201526c24b73b30b634b2103a34b2b91760991b6044820152606490fd5b60405162461bcd60e51b815260206004820152601360248201527221b7b73a3930b1ba1034b9903830bab9b2b21760691b6044820152606490fd5b634e487b7160e01b5f52602160045260245ffd5b34610238575f366003190112610238576004546103ec336001600160a01b03831614610e64565b60ff60a01b19811660a091821c60ff161590911b60ff60a01b1617600455005b34610238575f3660031901126102385761043460ff60045460a81c1660405191829182610dfb565b0390f35b34610238576020366003190112610238576001600160a01b03610459610e0e565b165f526006602052602060405f2054604051908152f35b346102385760403660031901126102385760043567ffffffffffffffff8111610238573660238201121561023857806004013567ffffffffffffffff811161022457604051916104ca601f8301601f191660200184610d15565b818352366024838301011161023857815f9260246020930183860137830101526024359061050360018060a01b03600454163314610e64565b811561063c576040519061051682610cf9565b815260208101918252604081015f8152600554680100000000000000008110156102245780600161054a9201600555610c91565b929092610629575192835167ffffffffffffffff811161022457610578816105728654610cc1565b86610f0f565b6020601f82116001146105c45790806105aa92600296975f926105b9575b50508160011b915f199060031b1c19161790565b84555b51600184015551910155005b015190508780610596565b601f19821695855f52815f20965f5b81811061061157509160029697918460019594106105f9575b505050811b0184556105ad565b01515f1960f88460031b161c191690558680806105ec565b838301518955600190980197602093840193016105d3565b634e487b7160e01b5f525f60045260245ffd5b60405162461bcd60e51b815260206004820152601e60248201527f416d6f756e74206d7573742062652067726561746572207468616e20302e00006044820152606490fd5b34610238575f366003190112610238576004546040516001600160a01b039091168152602090f35b34610238576040366003190112610238576001600160a01b036106ca610e0e565b165f526006602052600160405f20016024355f52602052602060ff60405f2054166040519015158152f35b346102385760203660031901126102385760043561071e60018060a01b03600454163314610e64565b6005548082101561080f575f1981019081116102f45761074061074791610c91565b5091610c91565b919091610629578082036107eb575b505060055480156107d7575f190161076d81610c91565b6106295760028161077f5f9354610cc1565b80610794575b50600181018390550155600555005b601f81116001146107aa57508281555b84610785565b818452602084206107c691601f0160051c810190600101610ef9565b8083528260208120818355556107a4565b634e487b7160e01b5f52603160045260245ffd5b6002816107f9829385610f52565b6001810154600185015501549101558080610756565b60405162461bcd60e51b81526020600482015260146024820152732a34b2b9103237b2b9903737ba1032bc34b9ba1760611b6044820152606490fd5b34610238575f366003190112610238576040515f60015461086b81610cc1565b808452906001811690811561090557506001146108a7575b6104348361089381850382610d15565b604051918291602083526020830190610dd7565b60015f9081527fb10e2d527612073b26eecdfd717e6a320cf44b4afac2b0732d9fcbe2b7fa0cf6939250905b8082106108eb57509091508101602001610893610883565b9192600181602092548385880101520191019092916108d3565b60ff191660208086019190915291151560051b840190910191506108939050610883565b34610238575f36600319011261023857602047604051908152f35b34610238575f36600319011261023857602060ff60045460a01c166040519015158152f35b34610238575f3660031901126102385761098161105a565b60ff60045460a81c1660038110156103b157600203610a1a57335f52600660205260405f205480156109d5575f8080809333825260066020528160408120553382f1156109ca57005b6040513d5f823e3d90fd5b60405162461bcd60e51b815260206004820152601960248201527f4e6f20636f6e747269627574696f6e20746f20726566756e64000000000000006044820152606490fd5b60405162461bcd60e51b81526020600482015260166024820152752932b33ab73239903737ba1030bb30b4b630b136329760511b6044820152606490fd5b34610238575f366003190112610238576020600254604051908152f35b34610238575f36600319011261023857610a9a60018060a01b03600454163314610e64565b610aa261105a565b60045460ff8160a81c1660038110156103b157600103610b1c5747908115610ade575f918291829182916001600160a01b031682f1156109ca57005b60405162461bcd60e51b81526020600482015260166024820152754e6f2062616c616e636520746f20776974686472617760501b6044820152606490fd5b60405162461bcd60e51b815260206004820152601860248201527f43616d706169676e206e6f74207375636365737366756c2e00000000000000006044820152606490fd5b34610238576020366003190112610238576004805490359060ff90610b90336001600160a01b03831614610e64565b60a81c1660038110156103b157610ba79015610ea0565b620151808102908082046201518014901517156102f457610bca90600354610eec565b600355005b34610238575f366003190112610238576020600354604051908152f35b34610238575f36600319011261023857610434610c07610e24565b60405191829182610dfb565b34610238575f366003190112610238576104346108935f610d37565b346102385760203660031901126102385760043560055481101561023857610c59610c8291610c91565b50610c6381610d37565b9060026001820154910154604051938493606085526060850190610dd7565b91602084015260408301520390f35b600554811015610cad5760055f52600360205f20910201905f90565b634e487b7160e01b5f52603260045260245ffd5b90600182811c92168015610cef575b6020831014610cdb57565b634e487b7160e01b5f52602260045260245ffd5b91607f1691610cd0565b6060810190811067ffffffffffffffff82111761022457604052565b90601f8019910116810190811067ffffffffffffffff82111761022457604052565b9060405191825f825492610d4a84610cc1565b8084529360018116908115610db55750600114610d71575b50610d6f92500383610d15565b565b90505f9291925260205f20905f915b818310610d99575050906020610d6f928201015f610d62565b6020919350806001915483858901015201910190918492610d80565b905060209250610d6f94915060ff191682840152151560051b8201015f610d62565b805180835260209291819084018484015e5f828201840152601f01601f1916010190565b9190602083019260038210156103b15752565b600435906001600160a01b038216820361023857565b60ff60045460a81c1660038110156103b157801580610e59575b610e455790565b506002544710610e5457600190565b600290565b506003544211610e3e565b15610e6b57565b60405162461bcd60e51b815260206004820152600d60248201526c2737ba103a34329037bbb732b960991b6044820152606490fd5b15610ea757565b60405162461bcd60e51b815260206004820152601760248201527f43616d706169676e206973206e6f74206163746976652e0000000000000000006044820152606490fd5b919082018092116102f457565b818110610f04575050565b5f8155600101610ef9565b9190601f8111610f1e57505050565b610d6f925f5260205f20906020601f840160051c83019310610f48575b601f0160051c0190610ef9565b9091508190610f3b565b91909182811461102d57610f668354610cc1565b67ffffffffffffffff811161022457610f8981610f838454610cc1565b84610f0f565b5f93601f8211600114610fc757610fb892939482915f92610fbc5750508160011b915f199060031b1c19161790565b9055565b015490505f80610596565b601f198216905f5260205f2094835f5260205f20915f5b81811061101557509583600195969710610ffd575b505050811b019055565b01545f1960f88460031b161c191690555f8080610ff3565b9192600180602092868b015481550194019201610fde565b509050565b60038110156103b1576004805460ff60a81b191660a89290921b60ff60a81b16919091179055565b60ff60045460a81c1660038110156103b1571561107357565b600354421061109957600254471061108f57610d6f6001611032565b610d6f6002611032565b60025447106110ac57610d6f6001611032565b610d6f5f61103256fea26469706673582212205e76c6eb555f64c2f08671d9c132840f7cb877247d1525747c3796ba99a72bdd64736f6c634300081d0033",
    "sourcePath": "d:/charlesDevelopment/decentralise_web_app/go_fund_me/contracts/CrowdFunding.sol",
    "compiler": {
        "name": "solc",
        "version": "0.8.29+commit.ab55807c"
    },
    "functionHashes": {
        "addTier(string,uint256)": "8ece7b91",
        "backers(address)": "b85dfb80",
        "deadline()": "29dcb0cf",
        "description()": "7284e416",
        "extendDeadline(uint256)": "389b7533",
        "fund(uint256)": "ca1d209d",
        "getCampaignStatus()": "10550515",
        "getContractBalance()": "6f9fb98a",
        "getTiers()": "de170570",
        "goal()": "40193883",
        "hasFundedTier(address,uint256)": "7adba527",
        "name()": "06fdde03",
        "owner()": "8da5cb5b",
        "paused()": "5c975abb",
        "refund()": "590e1ae3",
        "removeTier(uint256)": "7497211b",
        "state()": "c19d93fb",
        "tiers(uint256)": "039af9eb",
        "togglePause()": "c4ae3168",
        "withdraw()": "3ccfd60b"
    },
    "gasEstimates": {
        "creation": {
            "codeDepositCost": "866200",
            "executionCost": "infinite",
            "totalCost": "infinite"
        },
        "external": {
            "addTier(string,uint256)": "infinite",
            "backers(address)": "2728",
            "deadline()": "2314",
            "description()": "infinite",
            "extendDeadline(uint256)": "26800",
            "fund(uint256)": "infinite",
            "getCampaignStatus()": "6721",
            "getContractBalance()": "348",
            "getTiers()": "infinite",
            "goal()": "2380",
            "hasFundedTier(address,uint256)": "2744",
            "name()": "infinite",
            "owner()": "2558",
            "paused()": "2442",
            "refund()": "infinite",
            "removeTier(uint256)": "infinite",
            "state()": "2693",
            "tiers(uint256)": "infinite",
            "togglePause()": "24830",
            "withdraw()": "infinite"
        },
        "internal": {
            "checkAndUpdateCampaignState()": "30727"
        }
    }
}