{
    "contractName": "CrowdfundingFactory",
    "abi": [
        {
            "inputs": [],
            "stateMutability": "nonpayable",
            "type": "constructor"
        },
        {
            "inputs": [
                {
                    "internalType": "uint256",
                    "name": "",
                    "type": "uint256"
                }
            ],
            "name": "campaigns",
            "outputs": [
                {
                    "internalType": "address",
                    "name": "campaignAddress",
                    "type": "address"
                },
                {
                    "internalType": "address",
                    "name": "owner",
                    "type": "address"
                },
                {
                    "internalType": "string",
                    "name": "name",
                    "type": "string"
                },
                {
                    "internalType": "uint256",
                    "name": "creationTime",
                    "type": "uint256"
                }
            ],
            "stateMutability": "view",
            "type": "function"
        },
        {
            "inputs": [
                {
                    "internalType": "string",
                    "name": "_name",
                    "type": "string"
                },
                {
                    "internalType": "string",
                    "name": "_description",
                    "type": "string"
                },
                {
                    "internalType": "uint256",
                    "name": "_goal",
                    "type": "uint256"
                },
                {
                    "internalType": "uint256",
                    "name": "_durationInDays",
                    "type": "uint256"
                }
            ],
            "name": "createCampaign",
            "outputs": [],
            "stateMutability": "nonpayable",
            "type": "function"
        },
        {
            "inputs": [],
            "name": "getAllCampaigns",
            "outputs": [
                {
                    "components": [
                        {
                            "internalType": "address",
                            "name": "campaignAddress",
                            "type": "address"
                        },
                        {
                            "internalType": "address",
                            "name": "owner",
                            "type": "address"
                        },
                        {
                            "internalType": "string",
                            "name": "name",
                            "type": "string"
                        },
                        {
                            "internalType": "uint256",
                            "name": "creationTime",
                            "type": "uint256"
                        }
                    ],
                    "internalType": "struct CrowdfundingFactory.Campaign[]",
                    "name": "",
                    "type": "tuple[]"
                }
            ],
            "stateMutability": "view",
            "type": "function"
        },
        {
            "inputs": [
                {
                    "internalType": "address",
                    "name": "_user",
                    "type": "address"
                }
            ],
            "name": "getUserCampaigns",
            "outputs": [
                {
                    "components": [
                        {
                            "internalType": "address",
                            "name": "campaignAddress",
                            "type": "address"
                        },
                        {
                            "internalType": "address",
                            "name": "owner",
                            "type": "address"
                        },
                        {
                            "internalType": "string",
                            "name": "name",
                            "type": "string"
                        },
                        {
                            "internalType": "uint256",
                            "name": "creationTime",
                            "type": "uint256"
                        }
                    ],
                    "internalType": "struct CrowdfundingFactory.Campaign[]",
                    "name": "",
                    "type": "tuple[]"
                }
            ],
            "stateMutability": "view",
            "type": "function"
        },
        {
            "inputs": [],
            "name": "owner",
            "outputs": [
                {
                    "internalType": "address",
                    "name": "",
                    "type": "address"
                }
            ],
            "stateMutability": "view",
            "type": "function"
        },
        {
            "inputs": [],
            "name": "paused",
            "outputs": [
                {
                    "internalType": "bool",
                    "name": "",
                    "type": "bool"
                }
            ],
            "stateMutability": "view",
            "type": "function"
        },
        {
            "inputs": [],
            "name": "togglePause",
            "outputs": [],
            "stateMutability": "nonpayable",
            "type": "function"
        },
        {
            "inputs": [
                {
                    "internalType": "address",
                    "name": "",
                    "type": "address"
                },
                {
                    "internalType": "uint256",
                    "name": "",
                    "type": "uint256"
                }
            ],
            "name": "userCampaigns",
            "outputs": [
                {
                    "internalType": "address",
                    "name": "campaignAddress",
                    "type": "address"
                },
                {
                    "internalType": "address",
                    "name": "owner",
                    "type": "address"
                },
                {
                    "internalType": "string",
                    "name": "name",
                    "type": "string"
                },
                {
                    "internalType": "uint256",
                    "name": "creationTime",
                    "type": "uint256"
                }
            ],
            "stateMutability": "view",
            "type": "function"
        }
    ],
    "bytecode": "608080604052346026575f80546001600160a01b03191633179055612013908161002b8239f35b5f80fdfe60806040526004361015610011575f80fd5b5f3560e01c8063141961bc1461079057806319ac74bd146107125780635c975abb146106ee57806386cdf604146106205780638da5cb5b146105f9578063a1e5084c14610529578063a318f269146100e85763c4ae316814610071575f80fd5b346100e4575f3660031901126100e4575f546001600160a01b03811633036100b25760ff60a01b19811660a091821c60ff161590911b60ff60a01b16175f55005b60405162461bcd60e51b815260206004820152600a6024820152692737ba1037bbb732b91760b11b6044820152606490fd5b5f80fd5b346100e45760803660031901126100e45760043567ffffffffffffffff81116100e457610119903690600401610a90565b60243567ffffffffffffffff81116100e457610139903690600401610a90565b60ff5f5460a01c166104f057604051906114f78083019083821067ffffffffffffffff83111761040057839261019391610ae7853933835260a0602084015261018560a084018761098c565b90838203604085015261098c565b906044356060820152608060643591015203905ff080156104e557604051906101bb826108ae565b60018060a01b0316815260208101338152604082019283526060820190428252600154600160401b811015610400578060016101fc9201600155600161085d565b61041457835181546001600160a01b039182166001600160a01b0319918216178355835160018401805491909316911617905584518051600283019167ffffffffffffffff82116104005781906102538454610876565b601f8111610495575b50602090601f8311600114610432575f92610427575b50508160011b915f199060031b1c19161790555b60038351910155335f52600260205260405f208054600160401b811015610400576102b69160018201815561085d565b939093610414575183546001600160a01b03199081166001600160a01b039283161785559151600185018054909316911617905591518051909290600283019067ffffffffffffffff81116104005761030f8254610876565b601f81116103bb575b506020601f8211600114610357578190600395965f9261034c575b50508160011b915f1990861b1c19161790555b51910155005b015190508680610333565b601f19821695835f52815f20965f5b8181106103a3575091600396979184600195941061038c575b505050811b019055610346565b01515f1983881b60f8161c1916905586808061037f565b83830151895560019098019760209384019301610366565b825f5260205f20601f830160051c810191602084106103f6575b601f0160051c01905b8181106103eb5750610318565b5f81556001016103de565b90915081906103d5565b634e487b7160e01b5f52604160045260245ffd5b634e487b7160e01b5f525f60045260245ffd5b015190508880610272565b5f8581528281209350601f198516905b81811061047d5750908460019594939210610465575b505050811b019055610286565b01515f1960f88460031b161c19169055888080610458565b92936020600181928786015181550195019301610442565b909150835f5260205f20601f840160051c810191602085106104db575b90601f859493920160051c01905b8181106104cd575061025c565b5f81558493506001016104c0565b90915081906104b2565b6040513d5f823e3d90fd5b60405162461bcd60e51b8152602060048201526011602482015270119858dd1bdc9e481a5cc81c185d5cd959607a1b6044820152606490fd5b346100e45760203660031901126100e4576001600160a01b0361054a6109e6565b165f52600260205260405f20805467ffffffffffffffff8111610400576040519161057b60208360051b01846108ca565b81835260208301905f5260205f205f915b8383106105a557604051806105a187826109fc565b0390f35b600460206001926040516105b8816108ae565b855460a086901b86900390811682528686015416838201526105dc600287016108ec565b60408201526003860154606082015281520192019201919061058c565b346100e4575f3660031901126100e4575f546040516001600160a01b039091168152602090f35b346100e4575f3660031901126100e45760015467ffffffffffffffff8111610400576040519061065660208260051b01836108ca565b8082526020820160015f527fb10e2d527612073b26eecdfd717e6a320cf44b4afac2b0732d9fcbe2b7fa0cf65f915b83831061069a57604051806105a187826109fc565b600460206001926040516106ad816108ae565b855460a086901b86900390811682528686015416838201526106d1600287016108ec565b604082015260038601546060820152815201920192019190610685565b346100e4575f3660031901126100e457602060ff5f5460a01c166040519015158152f35b346100e45760403660031901126100e45761072b6109e6565b6001600160a01b03165f9081526002602052604090208054602435908110156100e4576107579161085d565b50805460018201546001600160a01b03908116929116906105a1906003610780600283016108ec565b91015490604051948594856109b0565b346100e45760203660031901126100e4576004356001548110156100e4576001548110156108495760015f5260021b7fb10e2d527612073b26eecdfd717e6a320cf44b4afac2b0732d9fcbe2b7fa0cf6810180547fb10e2d527612073b26eecdfd717e6a320cf44b4afac2b0732d9fcbe2b7fa0cf78301546001600160a01b03908116939116916105a191600390610780907fb10e2d527612073b26eecdfd717e6a320cf44b4afac2b0732d9fcbe2b7fa0cf8016108ec565b634e487b7160e01b5f52603260045260245ffd5b8054821015610849575f5260205f209060021b01905f90565b90600182811c921680156108a4575b602083101461089057565b634e487b7160e01b5f52602260045260245ffd5b91607f1691610885565b6080810190811067ffffffffffffffff82111761040057604052565b90601f8019910116810190811067ffffffffffffffff82111761040057604052565b9060405191825f8254926108ff84610876565b808452936001811690811561096a5750600114610926575b50610924925003836108ca565b565b90505f9291925260205f20905f915b81831061094e575050906020610924928201015f610917565b6020919350806001915483858901015201910190918492610935565b90506020925061092494915060ff191682840152151560051b8201015f610917565b805180835260209291819084018484015e5f828201840152601f01601f1916010190565b6001600160a01b03918216815291166020820152608060408201819052909392916060916109e1919086019061098c565b930152565b600435906001600160a01b03821682036100e457565b602081016020825282518091526040820191602060408360051b8301019401925f915b838310610a2e57505050505090565b9091929394602080600192603f19858203018652885190848060a01b038251168152848060a01b03838301511683820152606080610a7b604085015160806040860152608085019061098c565b93015191015297019301930191939290610a1f565b81601f820112156100e45780359067ffffffffffffffff82116104005760405192610ac5601f8401601f1916602001856108ca565b828452602083830101116100e457815f92602080930183860137830101529056fe608060405234610391576114f78038038061001981610395565b928339810160a0828203126103915781516001600160a01b03811691908290036103915760208301516001600160401b038111610391578161005c9185016103ba565b604084015190916001600160401b0382116103915761007c9185016103ba565b92608060608201519101519180519060018060401b038211610298575f5490600182811c92168015610387575b602083101461027a5781601f84931161031a575b50602090601f83116001146102b7575f926102ac575b50508160011b915f199060031b1c1916175f555b83516001600160401b03811161029857600154600181811c9116801561028e575b602082101461027a57601f8111610217575b50602094601f82116001146101b4579481929394955f926101a9575b50508160011b915f199060031b1c1916176001555b600255620151808102908082046201518014901517156101955742018042116101955760035560048054600161ff0160a01b0319169190911790556040516110eb908161040c8239f35b634e487b7160e01b5f52601160045260245ffd5b015190505f80610136565b601f1982169560015f52805f20915f5b8881106101ff575083600195969798106101e7575b505050811b0160015561014b565b01515f1960f88460031b161c191690555f80806101d9565b919260206001819286850151815501940192016101c4565b60015f527fb10e2d527612073b26eecdfd717e6a320cf44b4afac2b0732d9fcbe2b7fa0cf6601f830160051c81019160208410610270575b601f0160051c01905b818110610265575061011a565b5f8155600101610258565b909150819061024f565b634e487b7160e01b5f52602260045260245ffd5b90607f1690610108565b634e487b7160e01b5f52604160045260245ffd5b015190505f806100d3565b5f8080528281209350601f198516905b81811061030257509084600195949392106102ea575b505050811b015f556100e7565b01515f1960f88460031b161c191690555f80806102dd565b929360206001819287860151815501950193016102c7565b5f80529091507f290decd9548b62a8d60345a988386fc84ba6bc95484008f6362f93160ef3e563601f840160051c8101916020851061037d575b90601f859493920160051c01905b81811061036f57506100bd565b5f8155849350600101610362565b9091508190610354565b91607f16916100a9565b5f80fd5b6040519190601f01601f191682016001600160401b0381118382101761029857604052565b81601f82011215610391578051906001600160401b038211610298576103e9601f8301601f1916602001610395565b928284526020838301011161039157815f9260208093018386015e830101529056fe60806040526004361015610011575f80fd5b5f3560e01c8063039af9eb14610c2f57806306fdde0314610c135780631055051514610bec57806329dcb0cf14610bcf578063389b753314610b615780633ccfd60b14610a755780634019388314610a58578063590e1ae3146109695780635c975abb146109445780636f9fb98a146109295780637284e4161461084b5780637497211b146106f55780637adba527146106a95780638da5cb5b146106815780638ece7b9114610470578063b85dfb8014610438578063c19d93fb1461040c578063c4ae3168146103c5578063ca1d209d1461023c5763de170570146100f5575f80fd5b34610238575f3660031901126102385760055467ffffffffffffffff8111610224576040519061012b60208260051b0183610d15565b80825260208201908160055f527f036b6384b5eca791c62761152d0c79bb0604c104a5fb6f4eb0703f3154bb3db05f915b8383106101e657848660405191829160208301906020845251809152604083019060408160051b85010192915f905b82821061019a57505050500390f35b919360019193955060208091603f198982030185528751906040806101c88451606085526060850190610dd7565b9385810151868501520151910152960192019201859493919261018b565b600360206001926040516101f981610cf9565b61020286610d37565b815284860154838201526002860154604082015281520192019201919061015c565b634e487b7160e01b5f52604160045260245ffd5b5f80fd5b60203660031901126102385760043560045460ff8160a81c169060038210156103b15761026b60ff9215610ea0565b60a01c166103765760055481101561034157600161028882610c91565b500154340361030857600261029c82610c91565b500180545f1981146102f4576001019055335f52600660205260405f206102c4348254610eec565b9055335f526006602052600160405f2001905f5260205260405f20600160ff198254161790556102f261105a565b005b634e487b7160e01b5f52601160045260245ffd5b60405162461bcd60e51b815260206004820152601160248201527024b731b7b93932b1ba1030b6b7bab73a1760791b6044820152606490fd5b60405162461bcd60e51b815260206004820152600d60248201526c24b73b30b634b2103a34b2b91760991b6044820152606490fd5b60405162461bcd60e51b815260206004820152601360248201527221b7b73a3930b1ba1034b9903830bab9b2b21760691b6044820152606490fd5b634e487b7160e01b5f52602160045260245ffd5b34610238575f366003190112610238576004546103ec336001600160a01b03831614610e64565b60ff60a01b19811660a091821c60ff161590911b60ff60a01b1617600455005b34610238575f3660031901126102385761043460ff60045460a81c1660405191829182610dfb565b0390f35b34610238576020366003190112610238576001600160a01b03610459610e0e565b165f526006602052602060405f2054604051908152f35b346102385760403660031901126102385760043567ffffffffffffffff8111610238573660238201121561023857806004013567ffffffffffffffff811161022457604051916104ca601f8301601f191660200184610d15565b818352366024838301011161023857815f9260246020930183860137830101526024359061050360018060a01b03600454163314610e64565b811561063c576040519061051682610cf9565b815260208101918252604081015f8152600554680100000000000000008110156102245780600161054a9201600555610c91565b929092610629575192835167ffffffffffffffff811161022457610578816105728654610cc1565b86610f0f565b6020601f82116001146105c45790806105aa92600296975f926105b9575b50508160011b915f199060031b1c19161790565b84555b51600184015551910155005b015190508780610596565b601f19821695855f52815f20965f5b81811061061157509160029697918460019594106105f9575b505050811b0184556105ad565b01515f1960f88460031b161c191690558680806105ec565b838301518955600190980197602093840193016105d3565b634e487b7160e01b5f525f60045260245ffd5b60405162461bcd60e51b815260206004820152601e60248201527f416d6f756e74206d7573742062652067726561746572207468616e20302e00006044820152606490fd5b34610238575f366003190112610238576004546040516001600160a01b039091168152602090f35b34610238576040366003190112610238576001600160a01b036106ca610e0e565b165f526006602052600160405f20016024355f52602052602060ff60405f2054166040519015158152f35b346102385760203660031901126102385760043561071e60018060a01b03600454163314610e64565b6005548082101561080f575f1981019081116102f45761074061074791610c91565b5091610c91565b919091610629578082036107eb575b505060055480156107d7575f190161076d81610c91565b6106295760028161077f5f9354610cc1565b80610794575b50600181018390550155600555005b601f81116001146107aa57508281555b84610785565b818452602084206107c691601f0160051c810190600101610ef9565b8083528260208120818355556107a4565b634e487b7160e01b5f52603160045260245ffd5b6002816107f9829385610f52565b6001810154600185015501549101558080610756565b60405162461bcd60e51b81526020600482015260146024820152732a34b2b9103237b2b9903737ba1032bc34b9ba1760611b6044820152606490fd5b34610238575f366003190112610238576040515f60015461086b81610cc1565b808452906001811690811561090557506001146108a7575b6104348361089381850382610d15565b604051918291602083526020830190610dd7565b60015f9081527fb10e2d527612073b26eecdfd717e6a320cf44b4afac2b0732d9fcbe2b7fa0cf6939250905b8082106108eb57509091508101602001610893610883565b9192600181602092548385880101520191019092916108d3565b60ff191660208086019190915291151560051b840190910191506108939050610883565b34610238575f36600319011261023857602047604051908152f35b34610238575f36600319011261023857602060ff60045460a01c166040519015158152f35b34610238575f3660031901126102385761098161105a565b60ff60045460a81c1660038110156103b157600203610a1a57335f52600660205260405f205480156109d5575f8080809333825260066020528160408120553382f1156109ca57005b6040513d5f823e3d90fd5b60405162461bcd60e51b815260206004820152601960248201527f4e6f20636f6e747269627574696f6e20746f20726566756e64000000000000006044820152606490fd5b60405162461bcd60e51b81526020600482015260166024820152752932b33ab73239903737ba1030bb30b4b630b136329760511b6044820152606490fd5b34610238575f366003190112610238576020600254604051908152f35b34610238575f36600319011261023857610a9a60018060a01b03600454163314610e64565b610aa261105a565b60045460ff8160a81c1660038110156103b157600103610b1c5747908115610ade575f918291829182916001600160a01b031682f1156109ca57005b60405162461bcd60e51b81526020600482015260166024820152754e6f2062616c616e636520746f20776974686472617760501b6044820152606490fd5b60405162461bcd60e51b815260206004820152601860248201527f43616d706169676e206e6f74207375636365737366756c2e00000000000000006044820152606490fd5b34610238576020366003190112610238576004805490359060ff90610b90336001600160a01b03831614610e64565b60a81c1660038110156103b157610ba79015610ea0565b620151808102908082046201518014901517156102f457610bca90600354610eec565b600355005b34610238575f366003190112610238576020600354604051908152f35b34610238575f36600319011261023857610434610c07610e24565b60405191829182610dfb565b34610238575f366003190112610238576104346108935f610d37565b346102385760203660031901126102385760043560055481101561023857610c59610c8291610c91565b50610c6381610d37565b9060026001820154910154604051938493606085526060850190610dd7565b91602084015260408301520390f35b600554811015610cad5760055f52600360205f20910201905f90565b634e487b7160e01b5f52603260045260245ffd5b90600182811c92168015610cef575b6020831014610cdb57565b634e487b7160e01b5f52602260045260245ffd5b91607f1691610cd0565b6060810190811067ffffffffffffffff82111761022457604052565b90601f8019910116810190811067ffffffffffffffff82111761022457604052565b9060405191825f825492610d4a84610cc1565b8084529360018116908115610db55750600114610d71575b50610d6f92500383610d15565b565b90505f9291925260205f20905f915b818310610d99575050906020610d6f928201015f610d62565b6020919350806001915483858901015201910190918492610d80565b905060209250610d6f94915060ff191682840152151560051b8201015f610d62565b805180835260209291819084018484015e5f828201840152601f01601f1916010190565b9190602083019260038210156103b15752565b600435906001600160a01b038216820361023857565b60ff60045460a81c1660038110156103b157801580610e59575b610e455790565b506002544710610e5457600190565b600290565b506003544211610e3e565b15610e6b57565b60405162461bcd60e51b815260206004820152600d60248201526c2737ba103a34329037bbb732b960991b6044820152606490fd5b15610ea757565b60405162461bcd60e51b815260206004820152601760248201527f43616d706169676e206973206e6f74206163746976652e0000000000000000006044820152606490fd5b919082018092116102f457565b818110610f04575050565b5f8155600101610ef9565b9190601f8111610f1e57505050565b610d6f925f5260205f20906020601f840160051c83019310610f48575b601f0160051c0190610ef9565b9091508190610f3b565b91909182811461102d57610f668354610cc1565b67ffffffffffffffff811161022457610f8981610f838454610cc1565b84610f0f565b5f93601f8211600114610fc757610fb892939482915f92610fbc5750508160011b915f199060031b1c19161790565b9055565b015490505f80610596565b601f198216905f5260205f2094835f5260205f20915f5b81811061101557509583600195969710610ffd575b505050811b019055565b01545f1960f88460031b161c191690555f8080610ff3565b9192600180602092868b015481550194019201610fde565b509050565b60038110156103b1576004805460ff60a81b191660a89290921b60ff60a81b16919091179055565b60ff60045460a81c1660038110156103b1571561107357565b600354421061109957600254471061108f57610d6f6001611032565b610d6f6002611032565b60025447106110ac57610d6f6001611032565b610d6f5f61103256fea26469706673582212205e1c62a1385932458eaa10e1338d9238659f40e84e8fa641395a207c65da1ea164736f6c634300081d0033a2646970667358221220b9c1a45e3d1431ad31afb11a9e8fc54997a080eebe039f3977cbd9b2ee609d2d64736f6c634300081d0033",
    "sourcePath": "d:/charlesDevelopment/decentralise_web_app/go_fund_me/contracts/CrowdFundingFactory.sol",
    "compiler": {
        "name": "solc",
        "version": "0.8.29+commit.ab55807c"
    },
    "functionHashes": {
        "campaigns(uint256)": "141961bc",
        "createCampaign(string,string,uint256,uint256)": "a318f269",
        "getAllCampaigns()": "86cdf604",
        "getUserCampaigns(address)": "a1e5084c",
        "owner()": "8da5cb5b",
        "paused()": "5c975abb",
        "togglePause()": "c4ae3168",
        "userCampaigns(address,uint256)": "19ac74bd"
    },
    "gasEstimates": {
        "creation": {
            "codeDepositCost": "1642200",
            "executionCost": "25966",
            "totalCost": "1668166"
        },
        "external": {
            "campaigns(uint256)": "infinite",
            "createCampaign(string,string,uint256,uint256)": "infinite",
            "getAllCampaigns()": "infinite",
            "getUserCampaigns(address)": "infinite",
            "owner()": "2359",
            "paused()": "2309",
            "togglePause()": "24578",
            "userCampaigns(address,uint256)": "infinite"
        }
    }
}